{
  "contractName": "PersonalWallet",
  "abi": [
    {
      "constant": true,
      "inputs": [
        {
          "name": "",
          "type": "address"
        }
      ],
      "name": "nonces",
      "outputs": [
        {
          "name": "",
          "type": "uint256"
        }
      ],
      "payable": false,
      "stateMutability": "view",
      "type": "function"
    },
    {
      "constant": true,
      "inputs": [
        {
          "name": "",
          "type": "address"
        }
      ],
      "name": "roles",
      "outputs": [
        {
          "name": "",
          "type": "uint8"
        }
      ],
      "payable": false,
      "stateMutability": "view",
      "type": "function"
    },
    {
      "inputs": [
        {
          "name": "masterAccount",
          "type": "address"
        }
      ],
      "payable": false,
      "stateMutability": "nonpayable",
      "type": "constructor"
    },
    {
      "payable": true,
      "stateMutability": "payable",
      "type": "fallback"
    },
    {
      "constant": false,
      "inputs": [
        {
          "name": "_v",
          "type": "uint8"
        },
        {
          "name": "_r",
          "type": "bytes32"
        },
        {
          "name": "_s",
          "type": "bytes32"
        },
        {
          "name": "_from",
          "type": "address"
        },
        {
          "name": "_to",
          "type": "address"
        },
        {
          "name": "_value",
          "type": "uint256"
        },
        {
          "name": "_data",
          "type": "bytes"
        },
        {
          "name": "_rewardType",
          "type": "address"
        },
        {
          "name": "_rewardAmount",
          "type": "uint256"
        }
      ],
      "name": "execute",
      "outputs": [],
      "payable": false,
      "stateMutability": "nonpayable",
      "type": "function"
    },
    {
      "constant": false,
      "inputs": [
        {
          "name": "account",
          "type": "address"
        }
      ],
      "name": "addMasterAccount",
      "outputs": [],
      "payable": false,
      "stateMutability": "nonpayable",
      "type": "function"
    },
    {
      "constant": false,
      "inputs": [
        {
          "name": "account",
          "type": "address"
        }
      ],
      "name": "addActionAccount",
      "outputs": [],
      "payable": false,
      "stateMutability": "nonpayable",
      "type": "function"
    },
    {
      "constant": false,
      "inputs": [
        {
          "name": "account",
          "type": "address"
        }
      ],
      "name": "removeAccount",
      "outputs": [],
      "payable": false,
      "stateMutability": "nonpayable",
      "type": "function"
    },
    {
      "constant": true,
      "inputs": [
        {
          "name": "account",
          "type": "address"
        }
      ],
      "name": "canLogIn",
      "outputs": [
        {
          "name": "",
          "type": "bool"
        }
      ],
      "payable": false,
      "stateMutability": "view",
      "type": "function"
    },
    {
      "constant": true,
      "inputs": [
        {
          "name": "account",
          "type": "address"
        }
      ],
      "name": "isMasterAccount",
      "outputs": [
        {
          "name": "",
          "type": "bool"
        }
      ],
      "payable": false,
      "stateMutability": "view",
      "type": "function"
    },
    {
      "constant": true,
      "inputs": [
        {
          "name": "account",
          "type": "address"
        }
      ],
      "name": "isActionAccount",
      "outputs": [
        {
          "name": "",
          "type": "bool"
        }
      ],
      "payable": false,
      "stateMutability": "view",
      "type": "function"
    }
  ],
  "bytecode": "0x608060405234801561001057600080fd5b50604051602080610f1e8339810180604052810190808051906020019092919050505060016000808373ffffffffffffffffffffffffffffffffffffffff1673ffffffffffffffffffffffffffffffffffffffff16815260200190815260200160002060006101000a81548160ff0219169083600381111561008e57fe5b021790555050610e7b806100a36000396000f300608060405260043610610099576000357c0100000000000000000000000000000000000000000000000000000000900463ffffffff1680633c05187b1461009b57806355d55a76146101a157806357d6f5f2146101fc5780637ecebe001461025757806393b8e90d146102ae578063947aca5514610309578063993746421461034c578063c4740a95146103b1578063d7ba42fc146103f4575b005b3480156100a757600080fd5b5061019f600480360381019080803560ff16906020019092919080356000191690602001909291908035600019169060200190929190803573ffffffffffffffffffffffffffffffffffffffff169060200190929190803573ffffffffffffffffffffffffffffffffffffffff16906020019092919080359060200190929190803590602001908201803590602001908080601f0160208091040260200160405190810160405280939291908181526020018383808284378201915050505050509192919290803573ffffffffffffffffffffffffffffffffffffffff16906020019092919080359060200190929190505050610437565b005b3480156101ad57600080fd5b506101e2600480360381019080803573ffffffffffffffffffffffffffffffffffffffff1690602001909291905050506109fe565b604051808215151515815260200191505060405180910390f35b34801561020857600080fd5b5061023d600480360381019080803573ffffffffffffffffffffffffffffffffffffffff169060200190929190505050610a6c565b604051808215151515815260200191505060405180910390f35b34801561026357600080fd5b50610298600480360381019080803573ffffffffffffffffffffffffffffffffffffffff169060200190929190505050610a8e565b6040518082815260200191505060405180910390f35b3480156102ba57600080fd5b506102ef600480360381019080803573ffffffffffffffffffffffffffffffffffffffff169060200190929190505050610aa6565b604051808215151515815260200191505060405180910390f35b34801561031557600080fd5b5061034a600480360381019080803573ffffffffffffffffffffffffffffffffffffffff169060200190929190505050610b14565b005b34801561035857600080fd5b5061038d600480360381019080803573ffffffffffffffffffffffffffffffffffffffff169060200190929190505050610c1d565b6040518082600381111561039d57fe5b60ff16815260200191505060405180910390f35b3480156103bd57600080fd5b506103f2600480360381019080803573ffffffffffffffffffffffffffffffffffffffff169060200190929190505050610c3d565b005b34801561040057600080fd5b50610435600480360381019080803573ffffffffffffffffffffffffffffffffffffffff169060200190929190505050610d46565b005b600061044287610aa6565b151561044d57600080fd5b30878787878787600160008f73ffffffffffffffffffffffffffffffffffffffff1673ffffffffffffffffffffffffffffffffffffffff168152602001908152602001600020600081548092919060010191905055604051602001808973ffffffffffffffffffffffffffffffffffffffff1673ffffffffffffffffffffffffffffffffffffffff166c010000000000000000000000000281526014018873ffffffffffffffffffffffffffffffffffffffff1673ffffffffffffffffffffffffffffffffffffffff166c010000000000000000000000000281526014018773ffffffffffffffffffffffffffffffffffffffff1673ffffffffffffffffffffffffffffffffffffffff166c0100000000000000000000000002815260140186815260200185805190602001908083835b6020831015156105a3578051825260208201915060208101905060208303925061057e565b6001836020036101000a0380198251168184511680821785525050505050509050018473ffffffffffffffffffffffffffffffffffffffff1673ffffffffffffffffffffffffffffffffffffffff166c01000000000000000000000000028152601401838152602001828152602001985050505050505050506040516020818303038152906040526040518082805190602001908083835b602083101515610660578051825260208201915060208101905060208303925061063b565b6001836020036101000a038019825116818451168082178552505050505050905001915050604051809103902090508673ffffffffffffffffffffffffffffffffffffffff1660018260405160200180807f19457468657265756d205369676e6564204d6573736167653a0a333200000000815250601c0182600019166000191681526020019150506040516020818303038152906040526040518082805190602001908083835b60208310151561072d5780518252602082019150602081019050602083039250610708565b6001836020036101000a03801982511681845116808217855250505050505090500191505060405180910390208c8c8c604051600081526020016040526040518085600019166000191681526020018460ff1660ff1681526020018360001916600019168152602001826000191660001916815260200194505050505060206040516020810390808403906000865af11580156107ce573d6000803e3d6000fd5b5050506020604051035173ffffffffffffffffffffffffffffffffffffffff161415156107fa57600080fd5b600082111561095f57600073ffffffffffffffffffffffffffffffffffffffff168373ffffffffffffffffffffffffffffffffffffffff161415610874573373ffffffffffffffffffffffffffffffffffffffff168260405160006040518083038185875af192505050151561086f57600080fd5b61095e565b8273ffffffffffffffffffffffffffffffffffffffff1663a9059cbb33846040518363ffffffff167c0100000000000000000000000000000000000000000000000000000000028152600401808373ffffffffffffffffffffffffffffffffffffffff1673ffffffffffffffffffffffffffffffffffffffff16815260200182815260200192505050602060405180830381600087803b15801561091757600080fd5b505af115801561092b573d6000803e3d6000fd5b505050506040513d602081101561094157600080fd5b8101908080519060200190929190505050151561095d57600080fd5b5b5b8573ffffffffffffffffffffffffffffffffffffffff16858560405180828051906020019080838360005b838110156109a557808201518184015260208101905061098a565b50505050905090810190601f1680156109d25780820380516001836020036101000a031916815260200191505b5091505060006040518083038185875af19250505015156109f257600080fd5b50505050505050505050565b600060026003811115610a0d57fe5b6000808473ffffffffffffffffffffffffffffffffffffffff1673ffffffffffffffffffffffffffffffffffffffff16815260200190815260200160002060009054906101000a900460ff166003811115610a6457fe5b149050919050565b6000610a7782610aa6565b80610a875750610a86826109fe565b5b9050919050565b60016020528060005260406000206000915090505481565b600060016003811115610ab557fe5b6000808473ffffffffffffffffffffffffffffffffffffffff1673ffffffffffffffffffffffffffffffffffffffff16815260200190815260200160002060009054906101000a900460ff166003811115610b0c57fe5b149050919050565b3073ffffffffffffffffffffffffffffffffffffffff163373ffffffffffffffffffffffffffffffffffffffff161480610baf575060016003811115610b5657fe5b6000803373ffffffffffffffffffffffffffffffffffffffff1673ffffffffffffffffffffffffffffffffffffffff16815260200190815260200160002060009054906101000a900460ff166003811115610bad57fe5b145b1515610bba57600080fd5b60016000808373ffffffffffffffffffffffffffffffffffffffff1673ffffffffffffffffffffffffffffffffffffffff16815260200190815260200160002060006101000a81548160ff02191690836003811115610c1557fe5b021790555050565b60006020528060005260406000206000915054906101000a900460ff1681565b3073ffffffffffffffffffffffffffffffffffffffff163373ffffffffffffffffffffffffffffffffffffffff161480610cd8575060016003811115610c7f57fe5b6000803373ffffffffffffffffffffffffffffffffffffffff1673ffffffffffffffffffffffffffffffffffffffff16815260200190815260200160002060009054906101000a900460ff166003811115610cd657fe5b145b1515610ce357600080fd5b60008060008373ffffffffffffffffffffffffffffffffffffffff1673ffffffffffffffffffffffffffffffffffffffff16815260200190815260200160002060006101000a81548160ff02191690836003811115610d3e57fe5b021790555050565b3073ffffffffffffffffffffffffffffffffffffffff163373ffffffffffffffffffffffffffffffffffffffff161480610de1575060016003811115610d8857fe5b6000803373ffffffffffffffffffffffffffffffffffffffff1673ffffffffffffffffffffffffffffffffffffffff16815260200190815260200160002060009054906101000a900460ff166003811115610ddf57fe5b145b1515610dec57600080fd5b60016000808373ffffffffffffffffffffffffffffffffffffffff1673ffffffffffffffffffffffffffffffffffffffff16815260200190815260200160002060006101000a81548160ff02191690836003811115610e4757fe5b0217905550505600a165627a7a723058206eb68c2fff6cb6e1ae8d63a3f1db0f494b52eaeedeecf8bff8fcad9aa10aad8d0029",
  "source": "pragma solidity ^0.4.24;\n\nimport \"./ERC20.sol\";\n\n/**\n * @title Personal Wallet - Tenzorum Project https://tenzorum.org\n * @author Radek Ostrowski https://startonchain.com\n *\n * Inspired by:\n * IDEX: https://etherscan.io/address/0x2a0c0dbecc7e4d658f48e01e3fa353f44050c208#code\n * ERC-1077&1078: https://ethereum-magicians.org/t/erc-1077-and-erc-1078-the-magic-of-executable-signed-messages-to-login-and-do-actions/351\n * MetaTX: https://github.com/austintgriffith/bouncer-proxy\n * BTTS: https://github.com/bokkypoobah/BokkyPooBahsTokenTeleportationServiceSmartContract\n */\ncontract PersonalWallet {\n\n  modifier authorized () {\n    require(msg.sender == address(this) || roles[msg.sender] == Role.Master);\n    _;\n  }\n\n  enum Role {Unauthorised, Master, Action, Recovery}\n  mapping(address => Role) public roles;\n  mapping(address => uint) public nonces;\n\n  constructor(address masterAccount) public {\n    roles[masterAccount] = Role.Master;\n  }\n\n  function () payable public { }\n\n  function execute(\n    uint8 _v, bytes32 _r, bytes32 _s,\n    address _from, address _to,\n    uint _value, bytes _data,\n    address _rewardType, uint _rewardAmount) public {\n\n      require(isMasterAccount(_from));\n\n      bytes32 hash = keccak256(abi.encodePacked(address(this), _from, _to, _value, _data,\n        _rewardType, _rewardAmount, nonces[_from]++));\n\n      //make sure it was signed correctly by the originator\n      require(ecrecover(\n        keccak256(abi.encodePacked(\"\\x19Ethereum Signed Message:\\n32\", hash)), _v, _r, _s) == _from);\n\n      if(_rewardAmount > 0) {\n        if(_rewardType == address(0)){\n            //pay fee with ether\n            require(msg.sender.call.value(_rewardAmount)());\n          } else {\n            //pay fee with tokens\n            require((ERC20(_rewardType)).transfer(msg.sender, _rewardAmount));\n          }\n      }\n\n      //execute the transaction\n      require(_to.call.value(_value)(_data));\n  }\n\n  function addMasterAccount(address account) authorized public {\n    roles[account] = Role.Master;\n  }\n\n  function addActionAccount(address account) authorized public {\n    roles[account] = Role.Master;\n  }\n\n  function removeAccount(address account) authorized public {\n    roles[account] = Role.Unauthorised;\n  }\n\n  function canLogIn(address account) public view returns (bool) {\n    return isMasterAccount(account) || isActionAccount(account);\n  }\n\n  function isMasterAccount(address account) public view returns (bool) {\n    return roles[account] == Role.Master;\n  }\n\n  function isActionAccount(address account) public view returns (bool) {\n    return roles[account] == Role.Action;\n  }\n\n}\n",
  "sourcePath": "/Users/markp/eth_sf/socket_server/contracts/PersonalWallet.sol",
  "compiler": {
    "name": "solc",
    "version": "0.4.24+commit.e67f0147.Linux.g++"
  },
  "schemaVersion": "3.0.0-beta.1",
  "updatedAt": "2018-10-07T00:25:30.947Z"
}